{
  "contractName": "ProductLogic",
  "abi": [
    {
      "inputs": [],
      "stateMutability": "nonpayable",
      "type": "constructor"
    },
    {
      "anonymous": false,
      "inputs": [
        {
          "indexed": false,
          "internalType": "bool",
          "name": "stopped",
          "type": "bool"
        }
      ],
      "name": "EmergencyStopSet",
      "type": "event"
    },
    {
      "anonymous": false,
      "inputs": [
        {
          "indexed": false,
          "internalType": "uint256",
          "name": "productId",
          "type": "uint256"
        },
        {
          "indexed": false,
          "internalType": "string",
          "name": "productName",
          "type": "string"
        },
        {
          "indexed": true,
          "internalType": "address",
          "name": "manufacturer",
          "type": "address"
        }
      ],
      "name": "ProductRegistered",
      "type": "event"
    },
    {
      "inputs": [],
      "name": "owner",
      "outputs": [
        {
          "internalType": "address",
          "name": "",
          "type": "address"
        }
      ],
      "stateMutability": "view",
      "type": "function",
      "constant": true
    },
    {
      "inputs": [],
      "name": "productCount",
      "outputs": [
        {
          "internalType": "uint256",
          "name": "",
          "type": "uint256"
        }
      ],
      "stateMutability": "view",
      "type": "function",
      "constant": true
    },
    {
      "inputs": [
        {
          "internalType": "uint256",
          "name": "",
          "type": "uint256"
        }
      ],
      "name": "products",
      "outputs": [
        {
          "internalType": "uint256",
          "name": "productId",
          "type": "uint256"
        },
        {
          "internalType": "string",
          "name": "productName",
          "type": "string"
        },
        {
          "internalType": "address",
          "name": "manufacturer",
          "type": "address"
        },
        {
          "internalType": "bool",
          "name": "isRegistered",
          "type": "bool"
        }
      ],
      "stateMutability": "view",
      "type": "function",
      "constant": true
    },
    {
      "inputs": [],
      "name": "stopped",
      "outputs": [
        {
          "internalType": "bool",
          "name": "",
          "type": "bool"
        }
      ],
      "stateMutability": "view",
      "type": "function",
      "constant": true
    },
    {
      "inputs": [],
      "name": "toggleContractStopped",
      "outputs": [],
      "stateMutability": "nonpayable",
      "type": "function"
    },
    {
      "inputs": [
        {
          "internalType": "uint256",
          "name": "_productId",
          "type": "uint256"
        },
        {
          "internalType": "string",
          "name": "_productName",
          "type": "string"
        }
      ],
      "name": "registerProduct",
      "outputs": [],
      "stateMutability": "nonpayable",
      "type": "function"
    },
    {
      "inputs": [
        {
          "internalType": "uint256",
          "name": "_productId",
          "type": "uint256"
        }
      ],
      "name": "getProduct",
      "outputs": [
        {
          "internalType": "uint256",
          "name": "productId",
          "type": "uint256"
        },
        {
          "internalType": "string",
          "name": "productName",
          "type": "string"
        },
        {
          "internalType": "address",
          "name": "manufacturer",
          "type": "address"
        },
        {
          "internalType": "bool",
          "name": "isRegistered",
          "type": "bool"
        }
      ],
      "stateMutability": "view",
      "type": "function",
      "constant": true
    },
    {
      "inputs": [],
      "name": "getRegisterProductHash",
      "outputs": [
        {
          "internalType": "bytes4",
          "name": "",
          "type": "bytes4"
        }
      ],
      "stateMutability": "pure",
      "type": "function",
      "constant": true
    },
    {
      "inputs": [],
      "name": "getGetProductHash",
      "outputs": [
        {
          "internalType": "bytes4",
          "name": "",
          "type": "bytes4"
        }
      ],
      "stateMutability": "pure",
      "type": "function",
      "constant": true
    },
    {
      "inputs": [],
      "name": "test",
      "outputs": [
        {
          "internalType": "bytes",
          "name": "",
          "type": "bytes"
        }
      ],
      "stateMutability": "pure",
      "type": "function",
      "constant": true
    },
    {
      "inputs": [],
      "name": "getTestHash",
      "outputs": [
        {
          "internalType": "bytes4",
          "name": "",
          "type": "bytes4"
        }
      ],
      "stateMutability": "pure",
      "type": "function",
      "constant": true
    }
  ],
  "bytecode": "0x608060405234801561001057600080fd5b50336000806101000a81548173ffffffffffffffffffffffffffffffffffffffff021916908373ffffffffffffffffffffffffffffffffffffffff16021790555060008060146101000a81548160ff0219169083151502179055506112958061007a6000396000f3fe608060405234801561001057600080fd5b50600436106100a95760003560e01c8063bc05d08711610071578063bc05d0871461016e578063e0f6ef871461018a578063e83c78d4146101a8578063ecdf59fc146101b2578063f0bac310146101d0578063f8a8fd6d146101ee576100a9565b80634c2f65a9146100ae57806375f12b21146100cc5780637acc0b20146100ea5780638da5cb5b1461011d578063b9db15b41461013b575b600080fd5b6100b661020c565b6040516100c391906108d2565b60405180910390f35b6100d4610234565b6040516100e19190610908565b60405180910390f35b61010460048036038101906100ff919061096d565b610247565b6040516101149493929190610a7a565b60405180910390f35b61012561032c565b6040516101329190610ac6565b60405180910390f35b6101556004803603810190610150919061096d565b610350565b6040516101659493929190610a7a565b60405180910390f35b61018860048036038101906101839190610c16565b61050d565b005b610192610704565b60405161019f9190610c72565b60405180910390f35b6101b061070a565b005b6101ba61080a565b6040516101c791906108d2565b60405180910390f35b6101d8610832565b6040516101e591906108d2565b60405180910390f35b6101f661085a565b6040516102039190610ce2565b60405180910390f35b60007ff14a3e247bf17f35dbfbcc8b800b52b36599b6ec914aa320d413e007e47488ac905090565b600060149054906101000a900460ff1681565b600160205280600052604060002060009150905080600001549080600101805461027090610d33565b80601f016020809104026020016040519081016040528092919081815260200182805461029c90610d33565b80156102e95780601f106102be576101008083540402835291602001916102e9565b820191906000526020600020905b8154815290600101906020018083116102cc57829003601f168201915b5050505050908060020160009054906101000a900473ffffffffffffffffffffffffffffffffffffffff16908060020160149054906101000a900460ff16905084565b60008054906101000a900473ffffffffffffffffffffffffffffffffffffffff1681565b600060606000806001600086815260200190815260200160002060020160149054906101000a900460ff166103ba576040517f08c379a00000000000000000000000000000000000000000000000000000000081526004016103b190610db0565b60405180910390fd5b600060016000878152602001908152602001600020604051806080016040529081600082015481526020016001820180546103f490610d33565b80601f016020809104026020016040519081016040528092919081815260200182805461042090610d33565b801561046d5780601f106104425761010080835404028352916020019161046d565b820191906000526020600020905b81548152906001019060200180831161045057829003601f168201915b505050505081526020016002820160009054906101000a900473ffffffffffffffffffffffffffffffffffffffff1673ffffffffffffffffffffffffffffffffffffffff1673ffffffffffffffffffffffffffffffffffffffff1681526020016002820160149054906101000a900460ff161515151581525050905080600001518160200151826040015183606001519450945094509450509193509193565b600060149054906101000a900460ff161561055d576040517f08c379a000000000000000000000000000000000000000000000000000000000815260040161055490610e1c565b60405180910390fd5b6001600083815260200190815260200160002060020160149054906101000a900460ff16156105c1576040517f08c379a00000000000000000000000000000000000000000000000000000000081526004016105b890610e88565b60405180910390fd5b60405180608001604052808381526020018281526020013373ffffffffffffffffffffffffffffffffffffffff168152602001600115158152506001600084815260200190815260200160002060008201518160000155602082015181600101908161062d9190611054565b5060408201518160020160006101000a81548173ffffffffffffffffffffffffffffffffffffffff021916908373ffffffffffffffffffffffffffffffffffffffff16021790555060608201518160020160146101000a81548160ff021916908315150217905550905050600260008154809291906106ab90611155565b91905055503373ffffffffffffffffffffffffffffffffffffffff167fd810998a0248808a33b20218e71759cb2ec1a182b398350ad606d742587c012c83836040516106f892919061119d565b60405180910390a25050565b60025481565b60008054906101000a900473ffffffffffffffffffffffffffffffffffffffff1673ffffffffffffffffffffffffffffffffffffffff163373ffffffffffffffffffffffffffffffffffffffff1614610798576040517f08c379a000000000000000000000000000000000000000000000000000000000815260040161078f9061123f565b60405180910390fd5b600060149054906101000a900460ff1615600060146101000a81548160ff0219169083151502179055507f63ae042a5baeac6c85717731198bb29619465479eb6802bb62e652b69becbdb6600060149054906101000a900460ff166040516108009190610908565b60405180910390a1565b60007ff8a8fd6dd9544ca87214e80c840685bd13ff4682cacb0c90821ed74b1d248926905090565b60007fbc05d087f7c46b91d2576586c764545ce04866b657fd88a460391fe03ef53789905090565b60606040518060400160405280600481526020017f6369616f00000000000000000000000000000000000000000000000000000000815250905090565b60007fffffffff0000000000000000000000000000000000000000000000000000000082169050919050565b6108cc81610897565b82525050565b60006020820190506108e760008301846108c3565b92915050565b60008115159050919050565b610902816108ed565b82525050565b600060208201905061091d60008301846108f9565b92915050565b6000604051905090565b600080fd5b600080fd5b6000819050919050565b61094a81610937565b811461095557600080fd5b50565b60008135905061096781610941565b92915050565b6000602082840312156109835761098261092d565b5b600061099184828501610958565b91505092915050565b6109a381610937565b82525050565b600081519050919050565b600082825260208201905092915050565b60005b838110156109e35780820151818401526020810190506109c8565b60008484015250505050565b6000601f19601f8301169050919050565b6000610a0b826109a9565b610a1581856109b4565b9350610a258185602086016109c5565b610a2e816109ef565b840191505092915050565b600073ffffffffffffffffffffffffffffffffffffffff82169050919050565b6000610a6482610a39565b9050919050565b610a7481610a59565b82525050565b6000608082019050610a8f600083018761099a565b8181036020830152610aa18186610a00565b9050610ab06040830185610a6b565b610abd60608301846108f9565b95945050505050565b6000602082019050610adb6000830184610a6b565b92915050565b600080fd5b600080fd5b7f4e487b7100000000000000000000000000000000000000000000000000000000600052604160045260246000fd5b610b23826109ef565b810181811067ffffffffffffffff82111715610b4257610b41610aeb565b5b80604052505050565b6000610b55610923565b9050610b618282610b1a565b919050565b600067ffffffffffffffff821115610b8157610b80610aeb565b5b610b8a826109ef565b9050602081019050919050565b82818337600083830152505050565b6000610bb9610bb484610b66565b610b4b565b905082815260208101848484011115610bd557610bd4610ae6565b5b610be0848285610b97565b509392505050565b600082601f830112610bfd57610bfc610ae1565b5b8135610c0d848260208601610ba6565b91505092915050565b60008060408385031215610c2d57610c2c61092d565b5b6000610c3b85828601610958565b925050602083013567ffffffffffffffff811115610c5c57610c5b610932565b5b610c6885828601610be8565b9150509250929050565b6000602082019050610c87600083018461099a565b92915050565b600081519050919050565b600082825260208201905092915050565b6000610cb482610c8d565b610cbe8185610c98565b9350610cce8185602086016109c5565b610cd7816109ef565b840191505092915050565b60006020820190508181036000830152610cfc8184610ca9565b905092915050565b7f4e487b7100000000000000000000000000000000000000000000000000000000600052602260045260246000fd5b60006002820490506001821680610d4b57607f821691505b602082108103610d5e57610d5d610d04565b5b50919050565b7f50726f64756374206e6f74207265676973746572656400000000000000000000600082015250565b6000610d9a6016836109b4565b9150610da582610d64565b602082019050919050565b60006020820190508181036000830152610dc981610d8d565b9050919050565b7f436f6e74726163742069732073746f7070656400000000000000000000000000600082015250565b6000610e066013836109b4565b9150610e1182610dd0565b602082019050919050565b60006020820190508181036000830152610e3581610df9565b9050919050565b7f50726f6475637420616c72656164792072656769737465726564000000000000600082015250565b6000610e72601a836109b4565b9150610e7d82610e3c565b602082019050919050565b60006020820190508181036000830152610ea181610e65565b9050919050565b60008190508160005260206000209050919050565b60006020601f8301049050919050565b600082821b905092915050565b600060088302610f0a7fffffffffffffffffffffffffffffffffffffffffffffffffffffffffffffffff82610ecd565b610f148683610ecd565b95508019841693508086168417925050509392505050565b6000819050919050565b6000610f51610f4c610f4784610937565b610f2c565b610937565b9050919050565b6000819050919050565b610f6b83610f36565b610f7f610f7782610f58565b848454610eda565b825550505050565b600090565b610f94610f87565b610f9f818484610f62565b505050565b5b81811015610fc357610fb8600082610f8c565b600181019050610fa5565b5050565b601f82111561100857610fd981610ea8565b610fe284610ebd565b81016020851015610ff1578190505b611005610ffd85610ebd565b830182610fa4565b50505b505050565b600082821c905092915050565b600061102b6000198460080261100d565b1980831691505092915050565b6000611044838361101a565b9150826002028217905092915050565b61105d826109a9565b67ffffffffffffffff81111561107657611075610aeb565b5b6110808254610d33565b61108b828285610fc7565b600060209050601f8311600181146110be57600084156110ac578287015190505b6110b68582611038565b86555061111e565b601f1984166110cc86610ea8565b60005b828110156110f4578489015182556001820191506020850194506020810190506110cf565b86831015611111578489015161110d601f89168261101a565b8355505b6001600288020188555050505b505050505050565b7f4e487b7100000000000000000000000000000000000000000000000000000000600052601160045260246000fd5b600061116082610937565b91507fffffffffffffffffffffffffffffffffffffffffffffffffffffffffffffffff820361119257611191611126565b5b600182019050919050565b60006040820190506111b2600083018561099a565b81810360208301526111c48184610a00565b90509392505050565b7f4f6e6c7920636f6e7472616374206f776e65722063616e20706572666f726d2060008201527f7468697320616374696f6e000000000000000000000000000000000000000000602082015250565b6000611229602b836109b4565b9150611234826111cd565b604082019050919050565b600060208201905081810360008301526112588161121c565b905091905056fea2646970667358221220328cf3039cc71e9afd5eba33606fe9a8a43b9b6819333a46d68a07f7a2c9421c64736f6c63430008130033",
  "immutableReferences": {},
  "source": "// SPDX-License-Identifier: MIT\npragma solidity ^0.8.0;\n\ncontract ProductLogic {\n    address public owner;\n    bool public stopped;\n\n    struct Product {\n        uint productId;\n        string productName;\n        address manufacturer;\n        bool isRegistered;\n    }\n\n    mapping(uint => Product) public products;\n    uint public productCount;\n\n    event ProductRegistered(uint productId, string productName, address indexed manufacturer);\n    event EmergencyStopSet(bool stopped);\n\n    modifier onlyOwner {\n        require(msg.sender == owner, \"Only contract owner can perform this action\");\n        _;\n    }\n\n    modifier whenNotStopped {\n        require(!stopped, \"Contract is stopped\");\n        _;\n    }\n\n    constructor() {\n        owner = msg.sender;\n        stopped = false;\n    }\n\n    function toggleContractStopped() external onlyOwner {\n        stopped = !stopped;\n        emit EmergencyStopSet(stopped);\n    }\n\n    function registerProduct(uint _productId, string memory _productName) external whenNotStopped {\n        require(!products[_productId].isRegistered, \"Product already registered\");\n        \n        products[_productId] = Product(_productId, _productName, msg.sender, true);\n        productCount++;\n\n        emit ProductRegistered(_productId, _productName, msg.sender);\n    }\n\n    function getProduct(uint _productId) external view returns (\n        uint productId,\n        string memory productName,\n        address manufacturer,\n        bool isRegistered\n    ) {\n        require(products[_productId].isRegistered, \"Product not registered\");\n\n        Product memory product = products[_productId];\n        return (\n            product.productId,\n            product.productName,\n            product.manufacturer,\n            product.isRegistered\n        );\n    }\n\n    function getRegisterProductHash() external pure returns (bytes4) {\n        return bytes4(keccak256(\"registerProduct(uint256,string)\"));\n    }\n\n    function getGetProductHash() external pure returns (bytes4) {\n        return bytes4(keccak256(\"getProduct(uint)\"));\n    }\n\n    function test() external pure returns (bytes memory) {\n        return bytes(\"ciao\");\n    }   \n\n    function getTestHash() external pure returns (bytes4) {\n        return bytes4(keccak256(\"test()\"));\n    }\n\n    \n\n\n}",
  "sourcePath": "/home/rosario/Scrivania/myContractProject/contracts/ProductLogic.sol",
  "compiler": {
    "name": "solc",
    "version": "0.8.19+commit.7dd6d404.Emscripten.clang"
  },
  "schemaVersion": "3.4.16",
  "updatedAt": "2023-12-21T13:25:20.855Z",
  "networkType": "ethereum",
  "devdoc": {
    "kind": "dev",
    "methods": {},
    "version": 1
  },
  "userdoc": {
    "kind": "user",
    "methods": {},
    "version": 1
  }
}